:100000000C9414030C943C030C943C030C943C039C
:100010000C943C030C943C030C943C030C943C0364
:100020000C943C030C943C030C943C030C943C0354
:100030000C943C030C943C030C943C030C943C0344
:100040000C942C080C943C030C94D5080C94AF0829
:100050000C943C030C943C030C943C030C943C0324
:100060000C943C030C943C030000000800020100C7
:100070000003040700000000000000000000000072
:10008000003E5B4F5B3E3E6B4F6B3E1C3E7C3E1C1E
:10009000183C7E3C181C577D571C1C5E7F5E1C0064
:1000A000183C1800FFE7C3E7FF0018241800FFE71B
:1000B000DBE7FF30483A060E2629792926407F05DE
:1000C0000507407F05253F5A3CE73C5A7F3E1C1CF4
:1000D00008081C1C3E7F14227F22145F5F005F5FB4
:1000E00006097F017F006689956A606060606094A0
:1000F000A2FFA29408047E040810207E20100808A5
:100100002A1C08081C2A08081E101010100C1E0CAF
:100110001E0C30383E3830060E3E0E060000000041
:100120000000005F00000007000700147F147F1428
:10013000242A7F2A1223130864623649562050006D
:1001400008070300001C2241000041221C002A1C59
:100150007F1C2A08083E0808008070300008080844
:100160000808000060600020100804023E51494564
:100170003E00427F400072494949462141494D3382
:100180001814127F1027454545393C4A49493141E9
:10019000211109073649494936464949291E0000B7
:1001A000140000004034000000081422411414140C
:1001B0001414004122140802015909063E415D59F8
:1001C0004E7C1211127C7F494949363E4141412201
:1001D0007F4141413E7F494949417F090909013E2B
:1001E000414151737F0808087F00417F4100204052
:1001F000413F017F081422417F404040407F021C64
:10020000027F7F0408107F3E4141413E7F0909097A
:10021000063E4151215E7F09192946264949493246
:1002200003017F01033F4040403F1F2040201F3F0C
:100230004038403F63140814630304780403615991
:10024000494D43007F4141410204081020004141D3
:10025000417F04020102044040404040000307087F
:100260000020545478407F2844443838444444287B
:10027000384444287F385454541800087E09021822
:10028000A4A49C787F0804047800447D40002040AA
:10029000403D007F1028440000417F40007C0478EE
:1002A00004787C080404783844444438FC18242436
:1002B0001818242418FC7C080404084854545424B6
:1002C00004043F44243C4040207C1C2040201C3C33
:1002D0004030403C44281028444C9090907C44642A
:1002E000544C4400083641000000770000004136BD
:1002F000080002010204023C2623263C1EA1A16143
:10030000123A4040207A3854545559215555794174
:100310002254547842215554784020545579400C49
:100320001E5272123955555559395454545939552C
:100330005454580000457C410002457D420001456F
:100340007C407D1211127DF0282528F07C54554503
:10035000002054547C547C0A097F4932494949326F
:100360003A4444443A324A4848303A4141217A3A80
:1003700042402078009DA0A07D3D4242423D3D404C
:1003800040403D3C24FF2424487E4943662B2FFCFB
:100390002F2BFF0929F620C0887E090320545479A9
:1003A000410000447D413048484A32384040227A7A
:1003B000007A0A0A727D0D19317D2629292F2826F7
:1003C0002929292630484D402038080808080808FF
:1003D0000808382F10C8ACBA2F102834FA00007B58
:1003E000000008142A142222142A1408550055006B
:1003F00055AA55AA55AAFF55FF55FF000000FF005A
:10040000101010FF00141414FF001010FF00FF1054
:1004100010F010F0141414FC001414F700FF000086
:10042000FF00FF1414F404FC141417101F10101F05
:10043000101F1414141F00101010F0000000001FF3
:10044000101010101F10101010F010000000FF10FE
:100450001010101010101010FF10000000FF1400FA
:1004600000FF00FF00001F10170000FC04F414142C
:100470001710171414F404F40000FF00F7141414F8
:1004800014141414F700F7141414171410101F1078
:100490001F141414F4141010F010F000001F101F9B
:1004A0000000001F14000000FC140000F010F01009
:1004B00010FF10FF141414FF141010101F00000080
:1004C00000F010FFFFFFFFFFF0F0F0F0F0FFFFFF84
:1004D0000000000000FFFF0F0F0F0F0F38444438DB
:1004E00044FC4A4A4A347E02020606027E027E022A
:1004F00063554941633844443C04407E201E200635
:10050000027E020299A5E7A5991C2A492A1C4C7271
:1005100001724C304A4D4D303048784830BC625AF8
:10052000463D3E494949007E0101017E2A2A2A2A88
:100530002A44445F444440514A444040444A514064
:100540000000FF0103E080FF000008086B6B083625
:1005500012362436060F090F060000181800000096
:100560001010003040FF0101001F01011E00191D85
:100570001712003C3C3C3C00000000000000000062
:10058000250028002B0000000000240027002A007E
:100590000404040404040404020202020202030329
:1005A0000303030301020408102040800102040831
:1005B00010200102040810201FF08100FFE0879046
:1005C00003F001E006107FFEFFFFE817D00BFFFFEE
:1005D000D24BD24BFFFFD00BE817FFFF75AE35AC07
:1005E0003FFC35AC35AC3FFC35AC35AC3FFC35ACF5
:1005F00035AC3FFC35AC35AC3FFC35AC35AC3FFCE5
:1006000035AC35AC3FFC35AC35AC3FFC35AC35AC2E
:100610003FFC35AC35AC3FFC35AC35AC3FFC35ACC4
:1006200035AC3FFC3FFC501211241FBECFEFD8E089
:10063000DEBFCDBF13E0A0E0B1E0E4EEF1E302C025
:1006400005900D92AE37B107D9F724E0AEE7B3E0DD
:1006500001C01D92A63CB207E1F713E0C4E1D3E06C
:1006600004C02197FE010E94D415C331D107C9F7F8
:100670000E944D0D0C94F0180C940000CF92DF9264
:10068000EF92FF920F931F93CF93DF936C017A0148
:100690008B01C0E0D0E0CE15DF0581F0D8016D916F
:1006A0008D01D601ED91FC910190F081E02DC60104
:1006B0000995892B11F02196EECF7E01C701DF91BC
:1006C000CF911F910F91FF90EF90DF90CF90089501
:1006D000FC01538D448D252F30E0842F90E0821B48
:1006E000930B541710F0CF96089501970895FC01CD
:1006F000918D828D981761F0828DDF01A80FB11D59
:100700005D968C91928D9F5F9F73928F90E008957C
:100710008FEF9FEF0895FC01918D828D981731F036
:10072000828DE80FF11D858D90E008958FEF9FEF8A
:100730000895FC01918D228D892F90E0805C9F4F60
:10074000821B91098F739927089584E893E00E9492
:10075000990321E0892B09F420E0822F0895FC0100
:10076000848DDF01A80FB11DA35ABF4F2C91848D3A
:1007700090E001968F739927848FA689B7892C936F
:10078000A089B1898C91837080648C93938D848DC2
:10079000981306C00288F389E02D80818F7D8083C5
:1007A0000895EF92FF920F931F93CF93DF93EC0185
:1007B00081E0888F9B8D8C8D981305C0E889F9891D
:1007C000808185FD26C0F62E0B8D10E00F5F1F4F38
:1007D0000F731127E02E8C8DE8120CC00FB607FCAA
:1007E000FACFE889F989808185FFF5CFCE010E9493
:1007F000AF03F1CF8B8DFE01E80FF11DE35AFF4FE0
:10080000F0829FB7F8940B8FEA89FB898081806220
:100810000AC09FB7F894EE89FF896083E889F98957
:1008200080818370806480839FBF81E090E0DF914E
:10083000CF911F910F91FF90EF900895CF93DF9389
:10084000EC01888D8823C9F0EA89FB89808185FDC8
:1008500005C0A889B9898C9186FD0FC00FB607FC29
:10086000F5CF808185FFF2CFA889B9898C9185FF6A
:10087000EDCFCE010E94AF03E7CFDF91CF91089576
:1008800080E090E0892B29F00E94A50381110C944F
:1008900000000895FC0177FD68C080859185681788
:1008A00079070CF062C057FD60C0828593854817B8
:1008B00059070CF05AC08689823059F08330B1F064
:1008C0008130D1F48FE290E0861B970BBA01AC0126
:1008D00013C083E590E0FC01E61BF70BBF018FE23C
:1008E00090E0FC01E41BF50BAF0106C083E590E04E
:1008F000841B950BAB01BC0164357105B0F5403329
:10090000510598F5CA01E3E095958795EA95E1F7D9
:1009100047705527232BA1F024E5289FF001299F3C
:10092000F00D11246E0F7F1FFB01E050FF4F81E09F
:1009300090E001C0880F4A95EAF79081892B14C096
:1009400024E5289FF001299FF00D11246E0F7F1FD1
:10095000FB01E050FF4F81E090E001C0880F4A9515
:10096000EAF7809590818923808308950895FC019A
:100970006370668B8481958126813781613039F07F
:10098000633029F0918780873387228708953187E4
:1009900020879387828708956F927F928F929F928C
:1009A000AF92BF92CF92DF92EF92FF920F931F937D
:1009B000CF93DF93EC014B015A0169013801E881C3
:1009C000F9810284F385E02D0995E881F981028897
:1009D000F389E02D87019601A501B401CE010995A7
:1009E000A501460D571D41505109E881F981028842
:1009F000F389E02D9601B401CE010995E881F981D2
:100A00000088F189E02D9301A501B401CE0109957B
:100A1000C80CD91CB60161507109E881F9810088C0
:100A2000F189E02D9301A501CE010995E881F981B5
:100A30000688F789E02DCE01DF91CF911F910F91AC
:100A4000FF90EF90DF90CF90BF90AF909F908F90EE
:100A50007F906F9009948F929F92AF92BF92CF92A6
:100A6000DF92EF92FF920F931F93CF93DF934C018E
:100A70006B015A01E901DC01ED91FC9162177307EA
:100A800081F40417150724F48B2D5801042F182F17
:100A90000A191B0998012F5F3F4F048CF58DE02D3B
:100AA00012C04017510709F52617370724F48D2D7A
:100AB0006901C62FD82F9E012C193D092F5F3F4F8A
:100AC000068CF78DE02D8701A501B601C4010995BB
:100AD000DF91CF911F910F91FF90EF90DF90CF901A
:100AE000BF90AF909F908F9008950284F385E02D82
:100AF0000995D401ED91FC910488F589E02D9E01C2
:100B0000A501B601C4010995D401ED91FC910688B7
:100B1000F789E02DC401DF91CF911F910F91FF90D4
:100B2000EF90DF90CF90BF90AF909F908F900994FF
:100B3000EF92FF920F931F93DC011A960D911C9177
:100B40001B9718962D913C911997ED91FC9100A05F
:100B5000F1A1E02D7B0140E050E060E070E00995FC
:100B60001F910F91FF90EF9008954F925F926F92B7
:100B70007F928F929F92AF92BF92CF92DF92EF922D
:100B8000FF920F931F93CF93DF936C012B015A01B8
:100B900039014801DC01ED91FC910284F385E02DDF
:100BA0000995E201640C751CD601ED91FC91C61506
:100BB000D7055CF40088F189E02D87019401A50137
:100BC000BE01C60109952196EFCF0688F789E02D71
:100BD000C601DF91CF911F910F91FF90EF90DF90B1
:100BE000CF90BF90AF909F908F907F906F905F90CD
:100BF0004F9009948F929F92AF92BF92CF92DF92C3
:100C0000EF92FF920F931F93CF93DF93EC015B0161
:100C10004A016901E881F9810284F385E02D099593
:100C200095012C0D3D1D21503109E881F981048881
:100C3000F589E02D78018401A401B501CE01099563
:100C4000E881F9810688F789E02DCE01DF91CF9107
:100C50001F910F91FF90EF90DF90CF90BF90AF90DA
:100C60009F908F9009948F929F92AF92BF92CF9254
:100C7000DF92EF92FF920F931F93CF93DF93EC01DC
:100C80005B014A0169017801E881F9810284F385F9
:100C9000E02D0995C80CD91C860101501109E88185
:100CA000F9810488F589E02D9501A401B501CE01F3
:100CB0000995E881F9810688F789E02DCE01DF9159
:100CC000CF911F910F91FF90EF90DF90CF90BF9049
:100CD000AF909F908F9009940895EF92FF920F9399
:100CE0001F93DC01ED91FC9100A0F1A1E02D09958D
:100CF0001F910F91FF90EF9008950F931F93DC01C8
:100D0000ED91FC91068CF78DE02D09951F910F91C7
:100D100008950F931F93DC01ED91FC91048CF58DE8
:100D2000E02D09951F910F910895DC01ED91FC9143
:100D30000084F185E02D09942F923F924F925F92AB
:100D40006F927F928F929F92AF92BF92CF92DF92DB
:100D5000EF92FF920F931F93CF93DF9300D000D0B9
:100D600000D0CDB7DEB72C017E836D836A015901B7
:100D7000C801FC82EB824801841A950A97FE03C0E1
:100D800091948194910835012D813E81621A730AF4
:100D900077FE03C0719461947108681479045CF45F
:100DA0003A2D2B2D5C01832F922F3D812E81DE82E7
:100DB000CD82C32ED22EAD81BE81AA16BB065CF4B5
:100DC0003C2D2D2D6C01832F922F3D812E81BE82D3
:100DD000AD82A32EB22E85012D813E81021B130B05
:100DE0001C012C183D0837FE03C0319421943108B2
:100DF000780117FF03C03FEFE31AF30AF594E79475
:100E0000C816D9062CF08FEF9FEF9A83898304C010
:100E1000A1E0B0E0BA83A9832D813E81A216B3067A
:100E200024F1D201ED91FC910484F585E02D2B8114
:100E30003C816814790424F44D815E81B60103C0BD
:100E4000A6016D817E81C2010995E218F308F7FEC3
:100E500006C029813A81C20ED31EE00EF11E8D819B
:100E60009E8101969E838D83D7CF26960FB6F894E8
:100E7000DEBF0FBECDBFDF91CF911F910F91FF90CD
:100E8000EF90DF90CF90BF90AF909F908F907F902A
:100E90006F905F904F903F902F900895089580E05D
:100EA00090E008950E94DB188F929F92AF92CF92AC
:100EB000EF92FF920F931F93CF93DF93EC01262FB6
:100EC000898D9A8D009709F042C06A3059F41D86C9
:100ED0001C862D898E859F8538E0239F800D911D6E
:100EE000112443C06D3009F4AAC08F898823C9F04A
:100EF0003C898C859D8546E0349F800D911D112491
:100F0000488559854817590764F41D861C863D8914
:100F10008E859F8548E0349F800D911D11249F8709
:100F20008E87EA88FB88088919894E855F856C85DC
:100F30007D85AD88CC88CE010E94520A2C898C8593
:100F40009D8536E0239F800D911D11243EC06A309F
:100F500079F41D861C862D89FC013696E4918E85D8
:100F60009F852E9F800D911D11249F878E8767C0BE
:100F70006D3009F464C0FC0134963491631708F4B1
:100F80005EC03196E491E61708F459C0462F431B22
:100F9000342FFC0132968590949047E0349F800C6A
:100FA000911C1124F401329634913196E49133234B
:100FB00011F0E1110DC0F4013496E4912C898C8577
:100FC0009D85E29F800D911D11249D878C8737C0E0
:100FD000F401359644915F89552319F15C89E32F1B
:100FE000F0E0E40FF11D47FDFA955E9FB0015F9FB1
:100FF000700D11244C855D85460F571F68857985D6
:101000006417750774F41D861C863D89FC013696AD
:10101000E4918E859F853E9F800D911D11249F87B1
:101020008E87EA88FB88088919894E855F856C85DB
:101030007D85AD88CC88CE010E94520ABCCF81E06C
:1010400090E0DF91CF911F910F91FF90EF90CF90A3
:10105000AF909F908F9008951F920F920FB60F92AE
:1010600011242F933F938F939F93AF93BF938091BE
:10107000210490912204A0912304B0912404309182
:101080007F0323E0230F2D3720F40196A11DB11D0E
:1010900005C026E8230F0296A11DB11D20937F03F2
:1010A0008093210490932204A0932304B0932404FA
:1010B0008091800390918103A0918203B09183037A
:1010C0000196A11DB11D8093800390938103A0938D
:1010D0008203B0938303BF91AF919F918F913F9112
:1010E0002F910F900FBE0F901F9018950F931F9385
:1010F000CF93DF93EC0188819981009729F02A81B1
:101100003B812617370788F48B016F5F7F4F0E9462
:101110001518009761F0998388831B830A832C81BB
:101120003D81232B11F4FC01108281E001C080E09D
:10113000DF91CF911F910F910895CF93DF93EC0131
:1011400088819981009711F00E948C17198218826A
:101150001D821C821B821A82DF91CF9108951F92FB
:101160000F920FB60F9211242F933F934F935F93DB
:101170006F937F938F939F93AF93BF93EF93FF935F
:1011800084E893E00E94AF03FF91EF91BF91AF918C
:101190009F918F917F916F915F914F913F912F918F
:1011A0000F900FBE0F901F9018951F920F920FB6C1
:1011B0000F9211242F938F939F93EF93FF93E091BE
:1011C0009403F09195038081E0919A03F0919B0341
:1011D00082FD12C0908180919D038F5F8F7320915B
:1011E0009E03821751F0E0919D03F0E0EC57FC4F15
:1011F000958F80939D0301C08081FF91EF919F9116
:101200008F912F910F900FBE0F901F901895909176
:1012100040049F3F21F4909141049F3F59F128E001
:1012200030E040E8E0914704F0914804508190910B
:101230004A04909595239083E0914504F0914604EB
:1012400090914904582F542319F05081952B03C0D5
:101250005081909595239083E0914704F091480444
:10126000508190914A04952B9083469521503109E5
:10127000C9F608958EBD00000DB407FEFDCF8EB5F2
:1012800008950F931F93CF93DF930E94F713CBE43E
:10129000D4E000E010E028EC32E40C831D832E83C0
:1012A0003F832FE030E040E050E00E943A156C5E52
:1012B0007F4F8F4F9F4F0E948A14688779878A8754
:1012C0009B87DF91CF911F910F91089590E0FC01D2
:1012D000EC55FA4F2491FC01E057FA4F8491882392
:1012E00099F090E0880F991FFC01EA57FA4FA591F9
:1012F000B491FC01E458FA4F859194918FB7F8941A
:10130000EC91E22BEC938FBF08953F924F925F9246
:101310006F927F928F929F92AF92BF92CF92DF9205
:10132000EF92FF920F931F93CF93DF9300D000D0E3
:1013300000D0CDB7DEB72C013B014A015901C901EC
:10134000079697FD07969C0193E0359527959A950A
:10135000E1F73C832B83C12CD12CE12CF12C312CD7
:10136000C3018E0D9F1D9A838983E016F106C4F593
:101370001E821D822D813E812A153B054CF5C90137
:1013800087709927892B11F0330C0EC0ED81FE81F7
:10139000F7FD379683E0F595E7958A95E1F7EC0D33
:1013A000FD1DE80DF91D349037FE0CC020E030E043
:1013B00049815A816D817E81640D751D85E294E0BD
:1013C0000E9495068D819E8101969E838D83D2CF4A
:1013D0009FEFE91AF90A2B813C81C20ED31EC0CFC0
:1013E00026960FB6F894DEBF0FBECDBFDF91CF912A
:1013F0001F910F91FF90EF90DF90CF90BF90AF9033
:101400009F908F907F906F905F904F903F90089546
:10141000CF92DF92EF92FF920F931F93CF93DF93C0
:10142000CDB7DEB762970FB6F894DEBF0FBECDBF63
:101430008C01CB01F8011182108213821282158275
:1014400014824AE09E012F5F3F4F6901B9010E945B
:101450004E14F60101900020E9F731977F01EC1856
:10146000FD08B701C8010E947608811104C0C801B7
:101470000E949D0808C0F801F582E482B6018081CF
:1014800091810E94E91862960FB6F894DEBF0FBEF4
:10149000CDBFDF91CF911F910F91FF90EF90DF9023
:1014A000CF9008952F923F924F925F926F927F92CA
:1014B0008F929F92AF92BF92CF92DF92EF92FF9264
:1014C0000F931F93CF93DF93CDB7DEB76B970FB614
:1014D000F894DEBF0FBECDBF9B8F8A8F1B014A01E0
:1014E000D22E198708873701A982DC0159962D91E0
:1014F0003C915A972115310509F0FFC018968D913E
:101500009C911997681779070CF0E7C11A968D918D
:101510009C911B97481759070CF0DFC1EC2DF0E0A8
:10152000FB83EA839B0146E0C49E200D311D1124FC
:101530003D872C87121613060CF0CFC16A2D70E080
:101540007B876A8783E0660F771F8A95E1F77F873D
:101550006E87CB01880D991D181619060CF0BDC1B8
:1015600058968C91811104C08FEA8D1508F4D3949C
:10157000AA8DBB8DED91FC9111970284F385E02D2E
:10158000CD010995B5E0DB9EC0011124EC2DF0E002
:10159000F98BE88B91012B5F3F4F3B8B2A8B3D8270
:1015A0002C822101AC01421953095D8B4C8B79814E
:1015B000672F70E07F8B6E8BC4010896998F888FA0
:1015C000EC89FD89E40DF51DE458FF4FD4905401DA
:1015D0009F828E82D0FE16C0AA8DBB8DED91FC91AC
:1015E000B1E0CB1209C02981213031F40484F585A2
:1015F000E02D2885398519C00684F785E02DE8841B
:10160000F9841DC0488559854615570519F1AA8DDD
:10161000BB8DED91FC91B1E0CB120DC02981213041
:1016200051F40484F585E02D9301A501B2018A8D62
:101630009B8D09950FC00684F785E02D73010A85FF
:101640001B852A813B814E815F816C817D818A8DE2
:101650009B8D0995D6943FEFA31AB30A4E815F8103
:101660006E897F89460F571F5F834E83888D998DC2
:10167000A816B90609F0AECF9FEF491A590AAC81F6
:10168000BD81E889F989AE0FBF1FBD83AC832A896C
:101690003B894216530609F093CF48855985461574
:1016A000570509F4F8C0AA8DBB8DED91FC91B1E00E
:1016B000CB1211C02981213071F4B1016B5F7F4FD2
:1016C0000088F189E02D830128E030E0A4018A8DB3
:1016D0009B8D0995E0C06C857D854A815B81641B8B
:1016E000750B0684F785E02D73010E851F859A0121
:1016F000A4018A8D9B8D0995CEC0F9013496E491A1
:10170000DE1AF901329685919491B7E0DB9E800D47
:10171000911D1124F901259134913B8B2A8BFC01F9
:10172000259134915901FC013296549031963491AF
:101730003C87329674903196149141E04C1518F024
:101740005981523068F0672D072C000C770B7D8390
:101750006C83812F012E000C990B9B838A8304C01C
:101760001B821A821D821C82AA8DBB8DED91FC9179
:1017700011970284F385E02DCD010995412CD12CE0
:10178000612CF981EF2FF0E0FF83EE832C2D30E008
:101790003B872A87A401410F511D17FD5A955F8B86
:1017A0004E8BB101670D711D77FC7A95798F688F2B
:1017B0007C85671608F06FC0262D30E04A815B817A
:1017C000420F531FAE81BF81A49FC001A59F900D02
:1017D000B49F900D1124F401E80FF91FF98BE88BE9
:1017E000842D712C4E895F89420F531F5D8B4C8B6A
:1017F000751408F04DC051E0580F5E87877041F4B2
:10180000C5010196EA89FB89EA0DFB1DD4905C01B4
:10181000D7FE3AC061E0C61216C07981713099F4E2
:10182000AA8DBB8DED91FC9111970484F585E02D77
:10183000288539854C895D89688D798D670D711D85
:10184000CD01099521C08C819D81870D911DEA856F
:10185000FB858E9FB0018F9F700D9E9F700D112490
:10186000620D731DAA8DBB8DED91FC9111970684BD
:10187000F785E02DE884F9840E811F812A853B8558
:1018800048895989CD010995DD0C73948E85B0CFB7
:10189000450C63948DCFAA8DBB8DED91FC91119772
:1018A0000688F789E02DCD016B960FB6F894DEBF60
:1018B0000FBECDBFDF91CF911F910F91FF90EF90A1
:1018C000DF90CF90BF90AF909F908F907F906F9060
:1018D0005F904F903F902F9009946B960FB6F894BD
:1018E000DEBF0FBECDBFDF91CF911F910F91FF9053
:1018F000EF90DF90CF90BF90AF909F908F907F90B0
:101900006F905F904F903F902F90089590E0FC0172
:10191000E859FF4F2491FC01EC55FA4F3491FC013A
:10192000E057FA4FE491EE2309F43CC0222339F149
:10193000233091F038F42130A9F0223001F584B53C
:101940008F7D12C0273091F02830A1F02430B9F4F7
:10195000809180008F7D03C0809180008F7780937D
:1019600080000DC084B58F7784BD09C08091B00020
:101970008F7703C08091B0008F7D8093B000F0E03E
:10198000EE0FFF1FE458FA4FA591B4919FB7F8945A
:10199000611104C08C913095382302C0EC913E2B2C
:1019A0003C939FBF0895CF93C82F60E0809142047D
:1019B0000E94860C8091440418161CF460E00E947A
:1019C000860C8C2F0E94070980914404181624F479
:1019D00061E0CF910C94860CCF910895EF92FF9225
:1019E0000F931F93CF93DF9300E011E0C0E08C2FA3
:1019F00080640E94D30C80E80E94D30C61E0809147
:101A000042040E94860C8091440418161CF460E085
:101A10000E94860C7801D4E5F70181917F010E9434
:101A20000709D150C9F78091440418161CF461E0ED
:101A30000E94860CCF5F0C5A1F4FC630C1F680E45F
:101A4000DF91CF911F910F91FF90EF900C94D30CE9
:101A50003FB7F8948091800390918103A091820315
:101A6000B091830326B5A89B05C02F3F19F00196BE
:101A7000A11DB11D3FBFBA2FA92F982F8827820F14
:101A8000911DA11DB11DBC01CD0142E0660F771F64
:101A9000881F991F4A95D1F70895CF93DF93CDB74B
:101AA000DEB7A4970FB6F894DEBF0FBECDBF789413
:101AB00084B5826084BD84B5816084BD85B5826053
:101AC00085BD85B5816085BD80916E008160809304
:101AD0006E0010928100809181008260809381006D
:101AE000809181008160809381008091800081607D
:101AF000809380008091B10084608093B1008091D8
:101B0000B00081608093B00080917A0084608093FF
:101B10007A0080917A00826080937A0080917A00C6
:101B2000816080937A0080917A00806880937A0047
:101B30001092C100E0919403F091950382E08083BC
:101B4000E0919003F09191031082E0919203F09163
:101B500093038FEC808310929C03E0919803F091A3
:101B6000990386E08083E0919603F091970380814A
:101B700080618083E0919603F09197038081886073
:101B80008083E0919603F091970380818068808341
:101B9000E0919603F091970380818F7D80838091FF
:101BA00040048F3F29F4909141049F3F09F411C4F0
:101BB0000E946609809141040E9466098091410457
:101BC000082E000C990BFC01E057FA4FE491F0E06D
:101BD000EE0FFF1FE458FA4F2591349130934804DB
:101BE00020934704FC01EC55FA4FE491E0934A043A
:101BF00080914004082E000C990BFC01E057FA4F2D
:101C0000E491F0E0EE0FFF1FE458FA4F2591349174
:101C10003093460420934504FC01EC55FA4FE491BF
:101C2000E0934904809142040E9466098091430434
:101C3000181614F40E94660980914404181614F4CE
:101C40000E9466098091430418167CF560E00E94AA
:101C5000860C0E94280D4B015C0144EFC42EDD244C
:101C6000D394E12CF12C0E94280DDC01CB018819C2
:101C70009909AA09BB09883E9340A105B10598F3CB
:101C800021E0C21AD108E108F10838EE830E33E0F2
:101C9000931EA11CB11CC114D104E104F10419F775
:101CA00061E0809143040E94860C81E20E94D30C83
:101CB00084E10E94D30C88EA0E94D30C80E20E9447
:101CC000D30C8CE00E94D30C0E94EE0C81E20E94A7
:101CD000D30C8CEB0E94D30C80E20E94D30C88EFD3
:101CE00091E0E0E0F1E0DF019C011D9221503040E5
:101CF000E1F71092320410923104109234041092E1
:101D000033040E94EE0C33243394A0E0B1E0E8EFFA
:101D1000F1E01D923197E9F71092320410923104EC
:101D2000109234041092330461E070E085E294E094
:101D30000E9498053092390430923A041092380487
:101D40001092370410923604109235048091B30437
:101D50006091B4047091B504811183C01092320473
:101D60001092310428E130E030933404209333049E
:101D7000CE0101960E94080A18861F821A861986CB
:101D80001C861B8668E070E0CE0107960E947608EC
:101D9000811105C0CE0107960E949D080AC088E007
:101DA00090E09C878B8767E573E08F8198850E9420
:101DB000E9188D819E81C980DA80C114D10409F4AB
:101DC00045C30097B9F0EB84FC84E80EF91EB70117
:101DD000CE0107960E947608882309F437C32F8125
:101DE00038858B859C85B601820F931F0E94E91868
:101DF000FC86EB864B855C856F81788585E294E077
:101E00000E943E038F8198850E948C1789819A8158
:101E10000E948C173092390430923A0410923204A6
:101E20001092310488E290E090933404809333045C
:101E30004EE050E060E673E085E294E00E943E03ED
:101E400084E893E00E949903181619060CF0BCC2AE
:101E500084E893E00E9477038737910509F0B4C2C4
:101E6000FAC2A2E0B0E0B0933204A0933104B09380
:101E70003404A0933304CE0101960E94080A4D81D8
:101E80005E8169817A8185E294E00E943E038981C6
:101E90009A810E948C1760915B0470915C04809120
:101EA0005D0490915E040E94B9162B013C01609183
:101EB0005704709158048091590490915A040E94DB
:101EC000B9164B015C01E0917D04F0917E04FE8720
:101ED000ED87609153047091540480915504909162
:101EE00056040E94B9166B017C0160914F047091F9
:101EF000500480915104909152040E94B916DC0163
:101F0000CB01820194014D855E85B6010E94850951
:101F100060918F047091900480919104909192044B
:101F20000E94B9162B013C0160918B0470918C04C6
:101F300080918D0490918E040E94B9164B015C0132
:101F40002091B1043091B2043E872D8760918704BF
:101F5000709188048091890490918A040E94B91636
:101F60006B017C01609183047091840480918504ED
:101F7000909186040E94B916DC01CB018201940184
:101F80004D855E85B6010E9485098091B304882342
:101F900009F4F9C120E030E0A9016091B604709124
:101FA000B7048091B8049091B9040E94EF161816F6
:101FB0000CF042C02FB7F894809121049091220434
:101FC000A0912304B09124042FBFC090BE04D090F0
:101FD000BF04E090C004F090C104BC01CD016C19B5
:101FE0007D098E099F090E9488149B01AC016091B4
:101FF000B6047091B7048091B8049091B9040E941E
:10200000DA156093B6047093B7048093B804909384
:10201000B9042FB7F8948091210490912204A091E3
:102020002304B09124042FBF8093BE049093BF0477
:10203000A093C004B093C10420E030E040E450E439
:1020400060914F047091500480915104909152041A
:102050000E94DA154B015C0160934F0470935004A9
:10206000809351049093520420E030E0A9016091E4
:1020700053047091540480915504909156040E9429
:10208000DB156D877E878F87988B609353047093E1
:1020900054048093550490935604809197048111C1
:1020A00079C0C0909C04D0909D04E0909E04F09074
:1020B0009F0420E030E0A901C701B6010E9483140B
:1020C00087FF15C0A70196016091A4047091A50433
:1020D0008091A6049091A7040E94DB1560939C0454
:1020E00070939D0480939E0490939F0439C020E0D8
:1020F00030E0A901C701B6010E94EF16181684F559
:1021000020E030E040E251E4609193047091940447
:1021100080919504909196040E944716A70196011C
:102120000E94DB1560939C0470939D0480939E0431
:1021300090939F04C090AC04D090AD04E090AE04A6
:10214000F090AF04A70196010E94EF16181644F410
:10215000C0929C04D0929D04E0929E04F0929F0451
:1021600020919C0430919D0440919E0450919F04C5
:1021700060918704709188048091890490918A0409
:102180000E94DB1560938704709388048093890410
:1021900090938A0440908304509084046090850456
:1021A00070908604C0908704D0908804E0908904E1
:1021B000F0908A0480918B0490918C04A0918D04FE
:1021C000B0918E048D8F9E8FAF8FB8A380918F04B6
:1021D00090919004A0919104B09192048D8B9E8B6C
:1021E000AF8BB88F8091570490915804A0915904F7
:1021F000B0915A04898B9A8BAB8BBC8B80915B041A
:1022000090915C04A0915D04B0915E0489A39AA3AF
:10221000ABA3BCA3A501940169897A898B899C89A8
:102220000E94DB15698F7A8F8B8F9C8F9B01AC018D
:10223000C301B2010E94831487FF2EC0A301920143
:102240006D8D7E8D8F8D98A10E94DB15A501940167
:102250000E94EF16181604F529A13AA14BA15CA122
:102260006D857E858F8598890E94DB15A701960173
:102270000E94EF16181684F4A70196016D897E89D5
:102280008F89988D0E94DB152D853E854F85588955
:102290000E94EF161816C4F020E030E0A901C70133
:1022A000B6010E94831418167CF4A70196016D896B
:1022B0007E898F89988D0E94DB1520E030E040E414
:1022C00052E40E94EF1687FF1092B30420E030E042
:1022D00040E450E4698D7A8D8B8D9C8D0E94DA15D7
:1022E0009B01AC01C301B2010E948314811109C09A
:1022F0008091B4049091B50401969093B5048093B5
:10230000B40429893A894B895C8960E070E0CB018B
:102310000E94DA15A50194010E94EF1687FF0E9422
:10232000410920E030E0A9016091B6047091B70442
:102330008091B8049091B9040E94831418161CF17E
:102340008091BA049091BB04A091BC04B091BD04EB
:102350008093B6049093B704A093B804B093B904E3
:102360002FB7F8948091210490912204A091230426
:10237000B09124042FBF8093BE049093BF04A09318
:10238000C004B093C10484E893E00E949903181636
:102390001906D4F484E893E00E9477038737A1F408
:1023A000109298041092990410929A0410929B042F
:1023B00080E090E0A0E0B0EC80939C0490939D04BA
:1023C000A0939E04B0939F040E94EE0C0E944004D0
:1023D0009CCCFFB6F89480917E03811124C0EAE979
:1023E000F5E08491EEEAF5E09491E82FF0E0EE0F4D
:1023F000FF1FEA57FA4FA591B491EC91E92321F41C
:1024000061E08AE00E94860C8AE00E9466098CB531
:1024100080618CBD8CB580648CBD8DE00E946609A6
:102420008BE00E94660980917E038F5F80937E031C
:10243000FFBE8CB58C7F8CBD8DB58E7F8DBD8CB570
:10244000837F8CBD8CB58F7D8CBDECCBCE01079688
:102450000E949D08CFCC8091B304811102C03092BC
:10246000B30480E090E0A0EAB0E48093830490930A
:102470008404A0938504B093860480E090E0A0ECEF
:10248000B1E48093870490938804A0938904B09367
:102490008A040E9441091092B5041092B40494CFAA
:1024A0000F931F93CF93E4E8F3E01382128288EE38
:1024B00093E0A0E0B0E084839583A683B78386E0B1
:1024C00093E09183808385EC90E09587848784EC0A
:1024D00090E09787868780EC90E0918B808B81ECF1
:1024E00090E0938B828B82EC90E0958B848B86ECD2
:1024F00090E0978B868B118E128E138E148EEBE4E8
:10250000F4E08FE693E0918380838FE493E082830D
:1025100027E433E0238380E090E0A0EFB1E48483FC
:102520009583A683B78380879187A287B38780E04E
:1025300090E0A0E8B1E484879587A687B78780E01C
:1025400090E0A0E4B2E4808B918BA28BB38B118ED0
:10255000128E138E148E158E168E178E10A211A247
:1025600012A213A214A24DEC5CEC6CE47EE345A332
:1025700056A367A370A711A612A613A614A680E0FF
:1025800090E0A0E8BFE385A796A7A7A7B0AB148A01
:10259000158A168A178AC1E0C08FC1AB06EC15E018
:1025A00013AB02AB06E713E015AB04AB00E413E09A
:1025B00006AB27AB00E010E020EA30E400AF11AF3B
:1025C00022AF33AF00E010E020EC31E404AF15AFF0
:1025D00026AF37AF00E010E020E431E400938B0435
:1025E00010938C0420938D0430938E0400E010E04F
:1025F00020EE30E400938F04109390042093910414
:1026000030939204109298041092990410929A04B4
:1026100010929B0410929C0410929D0410929E04B0
:1026200010929F041092A0041092A1041092A20490
:102630001092A3044093A4045093A5046093A604AD
:102640007093A7041092A8041092A9041092AA04EF
:102650001092AB048093AC049093AD04A093AE04AD
:10266000B093AF048093930490939404A093950443
:10267000B093960410929704C093B00488EB95E051
:102680009093B2048093B1041092B3041092B504F5
:102690001092B404EAEBF4E01082118212821382E9
:1026A000A6EBB4E040E050E068EC72E44D935D933B
:1026B0006D937C9313978FB7F894409121045091B8
:1026C000220460912304709124048FBF4093BE04C0
:1026D0005093BF046093C0047093C1048D919D9189
:1026E0000D90BC91A02D80839183A283B3830E941F
:1026F0004109E5E2F4E01382128224E530E03583FB
:10270000248380E390E097838683318720879387B3
:102710008287168A1586148617861686C58BC48B03
:102720008FEF9FEF938B828B918B808BC78B108E5B
:10273000128E118E88E193E09183808384E0838FF1
:1027400083E0848F85E0858F87E0868F86E0878FA2
:10275000CF911F910F9108958F929F92AF92BF9248
:10276000CF92DF92EF92FF92CF93DF93EC016881DB
:1027700079818A819B81611571058105910521F41B
:1027800064E279ED8BE597E02DE133EF41E050E035
:102790000E943A1549015A019B01AC01A7EAB1E434
:1027A0000E9459156B017C01ACEEB4EFA5019401B8
:1027B0000E946715DC01CB018C0D9D1DAE1DBF1D58
:1027C000B7FF03C00197A109B04888839983AA8302
:1027D000BB83BC01CD019F77DF91CF91FF90EF903C
:1027E000DF90CF90BF90AF909F908F9008958F9281
:1027F0009F92AF92BF92CF92DF92EF92FF92609141
:10280000F8027091F9028091FA029091FB02611531
:1028100071058105910521F464E279ED8BE597E07E
:102820002DE133EF41E050E00E943A1549015A0191
:102830009B01AC01A7EAB1E40E9459156B017C0130
:10284000ACEEB4EFA50194010E946715DC01CB0149
:102850008C0D9D1DAE1DBF1DB7FF03C00197A109C3
:10286000B0488093F8029093F902A093FA02B093D3
:10287000FB02BC01CD019F77FF90EF90DF90CF90DE
:10288000BF90AF909F908F9008956093F8027093DF
:10289000F9028093FA029093FB020895BB274A3015
:1028A00031F4992322F4BDE2909581959F4F0C94C9
:1028B0005A14BB27FB015527AA27880F991FAA1F67
:1028C000A41710F0A41B83955051B9F7A05DAA334B
:1028D00008F0A95DA193009779F7B111B193119216
:1028E000CB010C947314DC01FC01672F71917723E9
:1028F000E1F7329704C07C916D9370836291AE17BB
:10290000BF07C8F308950E94C51408F481E0089534
:10291000E89409C097FB3EF4909580957095619579
:102920007F4F8F4F9F4F9923A9F0F92F96E9BB272F
:102930009395F695879577956795B795F111F8CFAB
:10294000FAF4BB0F11F460FF1BC06F5F7F4F8F4F16
:102950009F4F16C0882311F096E911C0772321F00C
:102960009EE8872F762F05C0662371F096E8862FA4
:1029700070E060E02AF09A95660F771F881FDAF7FB
:10298000880F9695879597F90895990F0008550F28
:10299000AA0BE0E8FEEF16161706E807F907C0F0E5
:1029A00012161306E407F50798F0621B730B840BED
:1029B000950B39F40A2661F0232B242B252B21F4C7
:1029C00008950A2609F4A140A6958FEF811D811D67
:1029D000089597F99F6780E870E060E008959FEFA1
:1029E00080EC089500240A941616170618060906A6
:1029F000089500240A941216130614060506089575
:102A0000092E0394000C11F4882352F0BB0F40F4FC
:102A1000BF2B11F460FF04C06F5F7F4F8F4F9F4F3C
:102A2000089557FD9058440F551F59F05F3F71F0BE
:102A30004795880F97FB991F61F09F3F79F0879525
:102A40000895121613061406551FF2CF4695F1DFAE
:102A500008C0161617061806991FF1CF869571053E
:102A6000610508940895E894BB2766277727CB0172
:102A700097F90895052E97FB1EF400940E945115B6
:102A800057FD07D00E94A31507FC03D04EF40C9409
:102A9000511550954095309521953F4F4F4F5F4FC1
:102AA000089590958095709561957F4F8F4F9F4FBA
:102AB00008950E94C515A59F900DB49F900DA49FE9
:102AC000800D911D11240895B7FF0C9459150E9493
:102AD0005915821B930B08952F923F924F925F924C
:102AE0006F927F928F929F92AF92BF92CF92DF921E
:102AF000EF92FF920F931F93CF93DF93CDB7DEB783
:102B0000CA1BDB0B0FB6F894DEBF0FBECDBF099416
:102B10002A88398848885F846E847D848C849B846D
:102B2000AA84B984C884DF80EE80FD800C811B817B
:102B3000AA81B981CE0FD11D0FB6F894DEBF0FBEAA
:102B4000CDBFED010895A1E21A2EAA1BBB1BFD010A
:102B50000DC0AA1FBB1FEE1FFF1FA217B307E4077C
:102B6000F50720F0A21BB30BE40BF50B661F771FD4
:102B7000881F991F1A9469F76095709580959095B4
:102B80009B01AC01BD01CF010895A29FB001B39F8D
:102B9000C001A39F700D811D1124911DB29F700D66
:102BA000811D1124911D0895EE0FFF1F0590F491D2
:102BB000E02D09945058BB27AA270E94F2150C94C7
:102BC00000150E94F21438F00E94F91420F039F434
:102BD0009F3F19F426F40C94EF140EF4E095E7FBF4
:102BE0000C94E914E92F0E94111558F3BA176207E3
:102BF00073078407950720F079F4A6F50C94331534
:102C00000EF4E0950B2EBA2FA02D0B01B901900107
:102C10000C01CA01A0011124FF27591B99F0593F4B
:102C200050F4503E68F11A16F040A22F232F342F93
:102C30004427585FF3CF469537952795A795F040E1
:102C40005395C9F77EF41F16BA0B620B730B840BF6
:102C5000BAF09150A1F0FF0FBB1F661F771F881FAE
:102C6000C2F70EC0BA0F621F731F841F48F4879506
:102C700077956795B795F7959E3F08F0B0CF9395F8
:102C8000880F08F09927EE0F9795879508950E9471
:102C90005B160C9400150E94F91458F00E94F2146F
:102CA00040F029F45F3F29F00C94E91451110C9481
:102CB00034150C94EF140E94111568F39923B1F3A5
:102CC000552391F3951B550BBB27AA276217730752
:102CD000840738F09F5F5F4F220F331F441FAA1FE6
:102CE000A9F335D00E2E3AF0E0E832D091505040A2
:102CF000E695001CCAF72BD0FE2F29D0660F771F50
:102D0000881FBB1F261737074807AB07B0E809F035
:102D1000BB0B802DBF01FF2793585F4F3AF09E3FBA
:102D2000510578F00C94E9140C9434155F3FE4F3EA
:102D3000983ED4F3869577956795B795F7959F5FFD
:102D4000C9F7880F911D9695879597F90895E1E049
:102D5000660F771F881FBB1F621773078407BA07A8
:102D600020F0621B730B840BBA0BEE1F88F7E09503
:102D700008950E94C0166894B1110C9434150895FA
:102D80000E94191588F09F5798F0B92F9927B751CD
:102D9000B0F0E1F0660F771F881F991F1AF0BA95FF
:102DA000C9F714C0B13091F00E943315B1E0089515
:102DB0000C943315672F782F8827B85F39F0B93F07
:102DC000CCF3869577956795B395D9F73EF49095B2
:102DD0008095709561957F4F8F4F9F4F08950E940A
:102DE000C51408F48FEF08950F931F93CF93DF93CB
:102DF0008230910510F482E090E0E091C404F091FB
:102E0000C50420E030E0A0E0B0E0309719F1408147
:102E100051810281138148175907C8F0841795071B
:102E200069F4109731F012960C93129713961C9335
:102E300027C00093C4041093C50422C02115310596
:102E400019F04217530718F49A01BD01EF01DF0191
:102E5000F801DBCF21153105F9F0281B390B24309F
:102E6000310580F48A819B816115710521F0FB0198
:102E70009383828304C09093C5048093C404FE01AD
:102E8000329644C0FE01E20FF31F819391932250CA
:102E90003109398328833AC02091C2043091C30498
:102EA000232B41F42091FE023091FF023093C304A2
:102EB0002093C2042091FC023091FD0221153105BE
:102EC00041F42DB73EB74091000350910103241BFC
:102ED000350BE091C204F091C304E217F307A0F4AC
:102EE0002E1B3F0B2817390778F0AC014E5F5F4F60
:102EF0002417350748F04E0F5F1F5093C3044093CB
:102F0000C2048193919302C0E0E0F0E0CF01DF9131
:102F1000CF911F910F910895CF93DF93009709F4FC
:102F200081C0FC01329713821282A091C404B09137
:102F3000C504109781F420813181820F931F209165
:102F4000C2043091C3042817390751F5F093C30424
:102F5000E093C20467C0ED0120E030E0CE17DF0748
:102F600040F44A815B819E0141155105F1F0EA016F
:102F7000F5CFD383C28340815181840F951FC81739
:102F8000D90759F488819981840F951F02969183FE
:102F900080838A819B81938382832115310529F463
:102FA000F093C504E093C4043DC0E901FB83EA83C8
:102FB00049915991C40FD51FEC17FD0761F4808129
:102FC0009181840F951F0296E901998388838281FC
:102FD00093819B838A83E0E0F0E012968D919C912F
:102FE0001397009719F0FD01DC01F7CF8D919C91AB
:102FF00011979D012E5F3F4F820F931F2091C204B6
:103000003091C3042817390769F4309729F41092D6
:10301000C5041092C40402C013821282B093C30488
:10302000A093C204DF91CF910895A0E0B0E0EBE15E
:10303000F8E10C947015EC01009721F4CB010E948B
:10304000F416B4C0FC01E60FF71F9C0122503109B1
:10305000E217F30708F4A8C0D9010D911C9111974C
:1030600006171707B0F00530110508F49BC0C8011A
:1030700004978617970708F495C002501109061B9C
:10308000170B019311936D937C93CF010E948C17C2
:1030900089C05B01A01AB10A4C01800E911EA0915B
:1030A000C404B091C504612C712CE12CF12C109753
:1030B00009F446C08D919C911197A815B905B1F5F9
:1030C0006C0142E0C40ED11CCA14DB0478F14C013F
:1030D0008A189B08640142E0C40ED11C1296BC9071
:1030E00012971396AC91B5E0CB16D10440F0B282A2
:1030F000A38391828082D9016D937C9309C00E5F76
:103100001F4F800F911FF90191838083EB2DFA2FC0
:10311000E114F10431F0D7011396FC93EE9312976A
:1031200041C0F093C504E093C4043CC0681679061E
:1031300008F43C017D0112960D90BC91A02DB7CFF3
:103140008091C2049091C30488169906E1F4661632
:103150007706C8F48091FC029091FD02009741F43B
:103160008DB79EB74091000350910103841B950BCE
:10317000E817F907C8F4F093C304E093C204F90117
:10318000718360830FC0CB010E94F4167C0100970D
:1031900059F0A801BE010E94E018CE010E948C17D0
:1031A000C70104C0CE0102C080E090E0CDB7DEB719
:1031B000EEE00C948C1581E090E0F8940C94F018FB
:1031C000FB01DC0102C001900D9241505040D8F744
:1031D0000895FB01DC0101900D920020E1F70895B4
:0431E000F894FFCF91
:1031E40000000000000000000000000000000000DB
:1031F40000000000000000000000000000000000CB
:10320400000000000000C0E0F0F8FCFCFEFFFCE061
:1032140000000000000000000000000000000000AA
:10322400000000000000000000000000000000009A
:10323400000000000000000000000000000000008A
:103244000000000000F8F8F8F8F8F8F8F8F8F8F8D2
:10325400F8F0F0E0E0C080C0FCFFFFFFFF7F3F7F9D
:10326400FFFFFFFFFF00000000000000000000005F
:10327400000000000000000000000000000000004A
:10328400000000000000000000000000000000003A
:10329400000000000000000000000F1F3F7FFFFF40
:1032A400FFFFFFFFFFFFE7C7C7878F9F9FFFFFFF5A
:1032B400C1C0E0FCFFFFFFFFFFFCFCFCFCFEFEFEC8
:1032C400FCFCF8F8F0E0C0C00000000000000000C2
:1032D40000000000000000000000000000000000EA
:1032E40000000000000000000000000000000000DA
:1032F4000080C0E0F1FBFFFFFFFFFF7F1F0F0F8780
:10330400E7FFFFFF1F1F3FF9F8F8F8F8F8F8FDFF93
:10331400FFFFFFFFFFFFFFFF7F3F0F0701000000DC
:103324000000000000000000000000000000000099
:103334000000000000000000000000000000000089
:10334400000000F0FEFFFFFFFFFFFFFFFFFFFFFE97
:103354007E3F3F0F1FFFFFFFFCF0E0F1FFFFFFFF89
:10336400FFFCF00101010101010101000000000066
:103374000000000000000000000000000000000049
:103384000000000000000000000000000000000039
:103394000000000000000003030303030303030110
:1033A40001010100000000000000030F1F3F7F7FA8
:1033B400FFFFFFFF7F7F1F030000000000000000ED
:1033C40000000000000000000000000000000000F9
:1033D4000000000000000000010000000000C6041E
:1033E400200000000000D1033E0368031E0499037B
:1033F40077038B030000000054073E034F074E077A
:103404004A046C0695066D0689067D069C066C06C4
:10341400B704B6043306FA05B50598052B05CC04A4
:10342400506C617965720044656661756C74004422
:10343400656661756C7400526573756C743A20002E
:10344400507265737320746F2073746172740057C3
:0E345400616C6C5F3100506C61796572000034
:00000001FF
